:020000040000FA
:06000000E6EF07F012001C
:0600080004EF08F01200F5
:060018000CEF08F01200DD
:0E0020000100EA0F0000BA000000020000001C
:02002E008A92B4
:1000300093920301736B776978697969766B010E26
:100040007A6F1200D9CFE6FFE1CFD9FFE652030164
:1000500073511FE1040108BF1BD0400EE66E600E15
:10006000E66E000EE66E0AEC06F0E552E552E55249
:100070000301010E736FDF6A400EDF5C09E2DF509F
:10008000EA6ABB0FE96E030EEA22EF6ADF2AF4D7B1
:1000900096D100016051080A01E180D10F0A01E107
:1000A00023D1010A01E118D1030A01E1B4D0010A08
:1000B0006AE0070A5DE0010A01E081D10301020E56
:1000C000BB6F03013A0EBC6F0301010EBD6F03014C
:1000D000010EBE6F0301BF6B100EC06FC16BC26B10
:1000E0000301C36B700EC46FC56BC66B0301030EB7
:1000F000C76F0301C86BC96B300ECA6FCB6B0301AE
:100100000E0ECC6FCD6BCE6BCF6B0301010ED06F9B
:100110000301D16BD26B200ED36FD46B0301080E99
:10012000D56FD66BD76BD86B0301D9690301020E6B
:10013000D96F0301DA6BDB6BF00EDC6FDD6B030153
:10014000DE6B010EDF6FE06BE16B0301E26904011E
:100150000CBF0DD0400EE66EBB0EE66E030EE66ED3
:10016000DAEC05F0E552E552E5520301736B27D155
:100170000301010E7A6F0001615102E103017A6B04
:100180000301736B1CD1400E0301746F756B030187
:10019000000E745D020E75591FE2040074C300F076
:1001A00075C301F0026A060E1F0B00C0F6FF01C006
:1001B000F7FF02C0F8FF06E0D890F636F736F836BB
:1001C000E806FAE1940EA66EA3D964EC06F00301EA
:1001D000742B000E7523DBD7DF6ADF50A96EA86889
:1001E000040EA66E64EC06F093D9DF50DF2A006E91
:1001F000016A026AFF0E005C000E0158000E0258F0
:10020000ECE3F66AF76A200EF86E940EA66E80D9BB
:100210000301736BD4D0300E0001635D07E103016D
:100220007A5101E132D90301736BC9D0F00E00019C
:10023000635D04E14DD90301736BC1D0E86803012C
:10024000771905E1E868781902E1E868791906E1AB
:1002500061C077F362C078F363C079F3770EE96E1B
:10026000030EEA6EEE500001611908E1EE50000144
:10027000621904E1EE500001631900E12AE1DF6A2E
:1002800000016551DF5C25E23A0E0001D88065551A
:10029000DF24EA6A660FE96E000EEA22EF50E66E8E
:1002A00003017651EA6A7B0FE96E030EEA22E552FA
:1002B000E750EF6E0301762B0301772B000E7823B6
:1002C000000E7923200E0301765D01E17DD8DF2A3F
:1002D000D7D70301736B73D077D803017769786937
:1002E00079690301736B6BD00301070EBB6F61C0AB
:1002F000BCF362C0BDF363C0BEF364C0BFF365C0AE
:10030000C0F361C0F6FF62C0F7FF63C0F8FFDF6AA9
:1003100000016551DF5C31E2F00E0001635D13E125
:10032000DF5000016125A96EA66AA6803A0E000181
:10033000D8806555DF24EA6AC10FE96E030EEA2210
:10034000A8CFEFFF18D00900300EF85C08E1050EC9
:10035000F65C01E1F568080EF65C01E1F5683A0E1D
:100360000001D8806555DF24EA6AC10FE96E030EEB
:10037000EA22F5CFEFFFDF2ACBD704010CBF0DD067
:10038000400EE66EBB0EE66E030EE66EDAEC05F08E
:10039000E552E552E5520301736B11D06D926D6A1F
:1003A000DF6AFF0EDF5C09E2E868E85004E0E80677
:1003B00000D000D0FAD7DF2AF4D7FF0000D0E552F2
:1003C000E552E7CFD9FF12000301FC6B76C300F0C2
:1003D000016A026A00500301775DF66E0150030165
:1003E0007859F76E025003017959F86E1F0EF61412
:1003F0000301FD6FE00EF6160301FB6B200E0301F7
:10040000FB5D1FE20301FD5115E1030176510FE091
:100410000301FC51EA6A7B0FE96E030EEA22EF50FA
:10042000F56E0D000301FC2B0301760702D0F56881
:100430000D0004D0F5680D000301FD070301FB2B3F
:10044000DDD70A00A40EA66E63D80301FB6B03017F
:1004500076510301FB5D18E20301FC510301FB250A
:10046000EA6A7B0FE96E030EEA22EF50E66E0301A3
:10047000FB51EA6A7B0FE96E030EEA22E552E75070
:10048000EF6E0301FB2BE3D7120061C0F6FF62C0E1
:10049000F7FF63C0F8FF0301FE6B00016551030124
:1004A000FE5D15E23A0E0001D88065550301FE2578
:1004B000EA6A660FE96E000EEA22EF50F56E0C0054
:1004C000C40EA66E25D809000301FE2BE6D7120044
:1004D0000301FF6B000165510301FF5D18E200019C
:1004E00061510301FF25A96E3A0E0001D8806555C0
:1004F0000301FF25EA6A660FE96E000EEA22EF505B
:10050000A86E040EA66E04D80301FF2BE3D71200D9
:10051000F29E550EA76EAA0EA76EA682A6B2FED7B1
:04052000A69412008B
:0C0524007AD9E6526C5032E1689604016E
:1005300000513C0BE842E8420D0828E1180E021970
:1005400023E1040E031920E1100E026F040E036F65
:10055000DF6ADF50006E016A080E005C000E015871
:1005600013E2DF50EA6A180FE96E040EEA22EF5038
:10057000E66EDF50EA6A100FE96E040EEA22E552D9
:10058000E750EF6EDF2AE5D70ED80AD03FD808D063
:10059000040E6C5C03E1689650D802D0000E01D0C6
:1005A000010EE5523FD139D9E652040104BF046B74
:1005B0000001B26BAA6BAB6BB06BB16B1EEC04F0BD
:1005C000DF6ADF50006E016A010E005C000E015808
:1005D0001AE20001AB5117E1F76ADF34FE0BF73680
:1005E000F66E960EF6260E0EF7220900F5CF00F0F5
:1005F0000800F5CF01F004D001C0FAFF0050F96EF9
:10060000FBDFDF2ADED7B4D8E5520CD1020E0001A1
:10061000AA5D0EE181D80401180E026F040E036F6B
:10062000080E016F00BD02D0C80E05D0880E03D0A1
:10063000D8D8E4D88C0E006F1200040E0001B35D10
:1006400009E112C46EFF6E50000802E2050E01D0EF
:10065000030EB36F0001AA0510E111D8020E0001CC
:10066000B25D03E10401840E06D0040104BD02D092
:10067000C80E01D0880E046F1200F1EF03F0CDD840
:10068000020EE1260001080EB05D000EB1590DE228
:10069000B0C0DEFFB1C0DDFFB25102E1010E03D0F8
:1006A000B20506E1020EB26F03D0080EDE6EDD6AFF
:1006B000040104930491010EDB500413DFCF05F411
:1006C000000EDB500001B05F010EDB50B15B180E75
:1006D000AE6F040EAF6F0001B4A30CD097D815E035
:1006E000ACC0F6FFADC0F7FF0800F5507FD8F6E2CA
:1006F000DB06F4D78BD809E0ACC0E9FFADC0EAFF58
:10070000EF5074D8F7E2DB06F5D7020EE15C02E2A7
:10071000E16AE552E16E86D080D8020EE126030E32
:1007200004010015E76E010EE7CFDBFF01C4DFFF18
:10073000DE500001B027DD50B123180EAC6F040E5F
:10074000AD6F64D80EE0ACC0E9FFADC0EAFFEF507A
:10075000AEC0E9FFAFC0EAFFEF6E68D8F2E2DB0699
:10076000F0D7020EE15C02E2E16AE552E16E5AD096
:100770006D980001AB5105E141D8840E006F040172
:100780001DD0040110AF1CD00001B0510401165D52
:100790000001B1510401175904E216C4B0F017C4A6
:1007A000B1F06DDF0001010EAA6F28D8800E006F36
:1007B0000401180E066F040E076FC80E046F1200B6
:1007C0000001020EAA6F0401056BC80E046F04013C
:1007D000080E016F180E026F040E036FC80E006F33
:1007E00012000001AA6B0401046B1200AEC0E9FF05
:1007F000AFC0EAFFEF6E000116EF04F00401080E2F
:10080000016F100E026F040E036F1200D9CFE9FFC3
:10081000DACFEAFFEE50ED101200D9CFE6FFE1CFBC
:10082000D9FF1200E552E7CFD9FF1200AE2B000E20
:0C083000AF23AC2BAD23DF06010E12003D
:04083C000401105152
:10084000600BE842E842E842E842E842000901E081
:1008500012001151070A40E00B0A3EE0070A33E09C
:10086000010A23E00B0A1FE0020A1DE0030A19E057
:10087000080A10E0010A0CE00F0A08E0030A01E090
:10088000120012D90001040EB36F12006DEF04F0D4
:10089000A4EF04F009D90001B50EAC6F000EAD6FE6
:1008A0000CD0BFEF04F0F1EF04F002D90001AC6FFF
:1008B000AD6BB60EAC27000EAD230001B493000162
:1008C000010EB06F1200F4D8EA6AB60FE96E000E9E
:1008D000EA2212C4EFFF12001200800E0401105D24
:1008E00032E11351030A1FE0010A0AE0030A29E179
:1008F000DBD80001D60EAC6F0D0EAD6F120E1ED000
:10090000B2D88C0EF6260E0EC0D8020E0001F76A81
:10091000AC25F66EAD51F7220900F5CFB0F00A0014
:10092000F5CFB1F00ED09FD8900EF6260E0EADD8B2
:10093000ACC0F6FFADC0F7FF0800F5500001B06F86
:10094000B16B0001B4831200AFD80F0EE66E710ECA
:10095000E66E0F0EA2D8010EE66EB60EE66E000E23
:100960009CD812C4B5F00401125104E10001050E37
:10097000B36F12000001060EB36FC5EF05F004015E
:10098000186B196B040110511F0B020A0FE0030AC8
:100990000BE0010A18E188D8040118810001B4A114
:1009A00012D0040118830FD07FD80DD050D801E0A9
:1009B000010E62D8AEC0E9FFEA6EEF50040B03E00F
:1009C0000401010E186F0001AB050AE10001180EC9
:1009D000AC6F040EAD6F0001B4930001020EB06F56
:1009E0001200040112050EE110511F0B00090AE16B
:1009F0005BD8030E0401115D03E10001B48102D054
:100A00000001B4910401125121E110511F0B0208A1
:100A10001DE114510F0B000919E019D801E0010E76
:100A20002BD8030E0401115D02E1840E03D014AF34
:100A300007D0400EAEC0E9FFAFC0EAFFEF6E120074
:100A4000880EAEC0E9FFAFC0EAFFEF6E120030D8EB
:100A50000F0B080DF350016A000F006E040E012207
:100A60001451800B120020D804011251F66EF76A5F
:100A7000D890F636F7361200040DF350000100242A
:100A8000AE6F000E0120AF6F1200F7220900F5CF04
:100A9000ACF00A00F5CFADF01200E66ED6EC06F031
:100AA000E552E552E55212000001010EAB6F120053
:080AB000FBDF040114511200E8
:080AB800040110511F0B01089D
:100AC00001E01200145101E01200060E115D24E154
:100AD0001351230A1FE0010A0DE0030A1BE1DBD8D2
:100AE0000001B50505E10001FA0EAC6F0D0EAD6F0A
:100AF000090E0DD0D0D80001B50505E100016F0E3B
:100B0000AC6F0E0EAD6F0001B50504E11D0E0001C6
:100B1000B06FB16B0001B48304011051600BE84267
:100B2000E842E842E842E842010801E012001151BF
:100B30000B0A25E0080A17E0090A11E0080A09E093
:100B40000B0A05E0080A01E01200C3EF05F0C4EF4C
:100B500005F0A1D80001B70EAC6F000E09D09BD8EC
:100B600013C4B7F0120097D80001B80EAC6F000E96
:100B7000AD6F0001B4930001010EB06F12008BD86D
:100B800012C4B8F01200120012000001B96B1E0E60
:100B9000716E0401400E096F200E0A6F040E0B6F78
:100BA000880E086F0401600E0E6F040E0F6F400E6A
:100BB0000C6F1200D9CFE6FFE1CFD9FFE652FC0E51
:100BC000DB50400805E2400EF36EFC0EF3CFDBFF76
:100BD000DF6AFC0EDB50DF5C0FE2DF5050D8EF50D5
:100BE000E66EDF50EA6A600FE96E040EEA22E55213
:100BF000E750EF6EDF2AEDD7FC0EDBCF0DF4400E91
:100C000004010C170C7D880E0C13E552E552E7CF5A
:100C1000D9FF1200D9CFE6FFE1CFD9FF0001B96BB0
:100C2000040108BF26D0FC0EDBCF00F00951D880AC
:100C3000005403E2FC0E09C4DBFF0001B96BFC0E9B
:100C4000DB50B95D0FE2B951EA6A200FE96E040E7C
:100C5000EA22EF50E66EB95112D8E552E750EF6E36
:100C6000B92BEDD70401400E096F0817087D880ED7
:100C700008130001B951E552E7CFD9FF1200E76E22
:100C8000FD0EDBCFE9FFFE0EDBCFEAFFE750E926E2
:0E0C9000000EEA2212000001020EAB6F1200ED
:020C9E006DA641
:100CA0000CD80001B30508E16DBA06D0686A696A1C
:100CB00069806988020EB36F12006D6A696A6D8679
:100CC0000001010EB36F12000001B35101E11200E7
:100CD00068B425D86DB2120068B038D868B817D893
:100CE00068BA24D8030E0001B35D01E212000001CE
:100CF000BC6B040EBC5D0AE268A608D092EC02F060
:100D0000000901E168960001BC2BF3D71200698449
:100D100068986D82A19AA08A0300A09A12006D9231
:100D2000699468A402D06894FCD7120070A00CD01B
:100D3000800E0401005D07E1840E0401045D03E1FF
:100D400004018C0E006F7090689A12006A6A686ADB
:100D50009F0E6B6E7B0E696E6E6A0F0EE66E710EE5
:100D6000E66E0F0EE66E22D8E552E552E552160EFB
:100D7000706E68A605D0689600D000D00000F9D744
:100D80006D98F1EC03F00401080E016F0401100EE0
:100D9000026F040E036F04018C0E006F0001B4910A
:100DA0000001B56B0001030EB36F1200D9CFE6FF4F
:100DB000E1CFD9FFFD0EDBCFE9FFFE0EDBCFEAFF6F
:100DC000FC0EDB5004E0EE6AFC0EDB06F9D7E552C0
:060DD000E7CFD9FF12007D
:0A0DD6001201000200000008D8041A
:100DE0003C0002000102000109022900010100C0CB
:100DF0003209040000020300000009211101000172
:100E0000221D000705810340000107050103400082
:100E1000010403090434034D006900630072006F8C
:100E200000630068006900700020005400650063E2
:100E30000068006E006F006C006F00670079002092
:100E40000049006E0063002E00260348004900445C
:100E5000002000550053004200200042006F006F48
:100E60000074006C006F0061006400650072000691
:100E700000FF0901A10119012940150026FF007595
:100E80000895408100190129409100C0E80DE80D46
:080E9000110E150E490EB80AFF
:080E9800200EF66E000EF76E4D
:100EA000000EF86E00010900F550A56F0900F5501D
:100EB000A66F03E1A56701D03DD00900F550A06FF2
:100EC0000900F550A16F0900F550A26F0900090053
:100ED000F550E96E0900F550EA6E090009000900B5
:100EE000F550A36F0900F550A46F09000900F6CF73
:100EF000A7F0F7CFA8F0F8CFA9F0A0C0F6FFA1C0E7
:100F0000F7FFA2C0F8FF0001A35302E1A45307E0DA
:100F10000900F550EE6EA307F8E2A407F9D7A7C0C1
:100F2000F6FFA8C0F7FFA9C0F8FF0001A507000E53
:060F3000A65BBFD7120012
:0A0F36000F0EC16E81A004D0070E5B
:100F4000C16E00EF08F00ED8040016D819D8060EAE
:100F50000001B35D05E16D50020B02E122EC00F0EF
:100F6000F3D71200140E6F6E0001B36B0001B46B67
:100F70000001B56B17EF00F04FEC06F064EF06F0E0
:100F80000001BA51BB1104E1100EBA6F270EBB6FFE
:100F9000BA07000EBB5B060E0001B35D01E2120052
:0C0FA0000001BA51BB1101E18A7212007D
:040FAC00000EF36ED2
:100FB00000EE00F0080E01D81200EA6002D0EE6ADE
:0C0FC000FCD7F350E9601200EE6AFCD789
:040FCC0013EE00F030
:100FD00023EE00F0F86A049C4CEC07F0F4EC07F008
:080FE0009BEC07F0FBD71200A7
:020FE8001200F5
:020FEA00000005
:020000040030CA
:0100000024DB
:010001000EF0
:010002003FBE
:010003001EDE
:010005008179
:010006008178
:010008000FE8
:01000900C036
:01000A000FE6
:01000B00E014
:01000C000FE4
:01000D0040B2
:00000001FF
