:020000040000FA
:0600000003EF09F01200FD
:02102A000000C4
:04102C00806A816AEB
:10103000826A010E936E8A72640EE66EE66A09D8C1
:10104000E552E55281B002D08A92FCD7F4D7FFD79F
:101050001200D9CFE6FFE1CFD9FFD950FD0FE96EDD
:10106000FF0EDA20EA6E000ED880EE54000EED542A
:1010700010E2010EE66ECCEC08F0E552020EE66ED0
:10108000E3EC08F0E552FD0EDB06FE0E01E2DB06A6
:10109000E4D7E552E7CFD9FF1200D9CFE6FFE1CF81
:1010A000D9FFFE0EDB50000808E2010EE66E11ECDF
:1010B00009F0E552FE0EDB06F4D7E552E7CFD9FF83
:1010C0001200DACFE4FFE2CFDAFFE652E552E5CFD5
:1010D000DAFF1100D8CFE4FFE0CFE4FFE46EDACF0F
:1010E000E4FFE2CFDAFFE652E552E5CFDAFFE55062
:0A10F000E5CFE0FFE5CFD8FF1000C8
:0610FA002A0EF66E100E36
:10110000F76E000EF86E00010900F550656F0900DA
:10111000F550666F03E1656701D03DD00900F550D9
:10112000606F0900F550616F0900F550626F0900AA
:101130000900F550E96E0900F550EA6E0900090052
:101140000900F550636F0900F550646F090009004C
:10115000F6CF67F0F7CF68F0F8CF69F060C0F6FF20
:1011600061C0F7FF62C0F8FF0001635302E16453FE
:1011700007E00900F550EE6E6307F8E26407F9D75F
:1011800067C0F6FF68C0F7FF69C0F8FF0001650798
:08119000000E665BBFD71200E0
:08119800FF0EE350036EEF0EA1
:1011A00001D0F30EE76EE72ED3EF08F00C0E026EBF
:1011B000E76AE72ED9EF08F0022ED8EF08F0032EE9
:0611C000D1EF08F012005F
:0A11C600FF0EE350036E480E01D047
:1011D0004C0EE76EE72EFED7E76AE72EFED7032E0A
:0611E000F7D70000120029
:0A11E600000EF36E00EE00F0080E9C
:1011F00001D81200EA6002D0EE6AFCD7F350E96031
:061200001200EE6AFCD7AB
:0A12060013EE00F023EE00F0F86A8A
:10121000019C7DEC08F01CEC09F016EC08F0FBD703
:021220001200BA
:0E122200FF0EE350E84E1200000000D000D096
:0812300000D0E82EFAD71200ED
:021238001200A2
:00000001FF
