:020000040000FA
:0600000008EF02F01200FF
:020006000000F8
:08000800806A816A826A010E20
:10001000936E26D8E66A010EE66EE8D8E552E55200
:100020004B0EE66E040EE66EABD8E552E552400E7E
:10003000E66EF7D8E552420EE66E040EE66EA0D8E4
:10004000E552E5528A72320EE66EE66A07D9E5524B
:10005000E55281B002D08A92FCD7F4D7FFD71200C4
:100060001E0EE66EE66AFAD8E552E5528A868A9452
:10007000050EE66E17D9E5520F0E8A1430098A6E06
:10008000DED8020EE66EE66AE9D8E552E5520F0EBA
:100090008A1430098A6ED3D8020EE66EE66ADED87C
:1000A000E552E5520F0E8A1430098A6EC8D8020E46
:1000B000E66EE66AD3D8E552E5520F0E8A1420099F
:1000C0008A6EBDD8020EE66EE66AC8D8E552E552E1
:1000D000280EE66E25D8E552060EE66E21D8E552CA
:1000E0000F0EE66E1DD8E552E0EF00F0D9CFE6FF27
:1000F000E1CFD9FFFE0EDB50F00B046E0F0E8A1419
:1001000004108A6E9CD8FE0EDB38F00B046E0F0EC6
:100110008A1404108A6E93D8E552E7CFD9FF1200F3
:10012000D9CFE6FFE1CFD9FF8A94050EE66EBAD8A3
:10013000E552FE0EDBCFE6FFD9DFE552010EE66E9B
:10014000E66A8CD8E552E552E552E7CFD9FF1200B6
:10015000D9CFE6FFE1CFD9FF8A84050EE66EA2D89B
:10016000E552FE0EDBCFE6FFC1DFE552010EE66E83
:10017000E66A74D8E552E552E552E7CFD9FF12009E
:10018000D9CFE6FFE1CFD9FFFD0EDBCFF6FFFE0EA4
:10019000DBCFF7FF0800F5500FE0FD0EDBCFF6FFD9
:1001A000DB2AFE0EDBCFF7FF01E3DB2A0800F55068
:1001B000E66ECEDFE552E8D7E552E7CFD9FF120071
:1001C000010EE66EADDFE552010EE66EE66A46D838
:1001D000E552E5521200020EE66EA2DFE552010E74
:1001E000E66EE66A3BD8E552E5521200D9CFE6FF4B
:1001F000E1CFD9FFFD0EDB5007E1FE0EDB50800F93
:10020000E66E8EDFE55209D0FD0EDB0406E1FE0E40
:10021000DB50C00FE66E84DFE552E552E7CFD9FF31
:100220001200D9CFE6FFE1CFD9FFFE0EDB50800FE1
:10023000E66E76DFE552E552E7CFD9FF12000A0EEF
:10024000E66E30D8E5528A96640EE66E2BD8E552FB
:100250008A86640EE66E26D8E5521200D9CFE6FFF4
:10026000E1CFD9FFD950FD0FE96EFF0EDA20EA6E1B
:10027000000ED880EE54000EED5410E2010EE66E32
:10028000D1EC01F0E552020EE66EE8EC01F0E55229
:10029000FD0EDB06FE0E01E2DB06E4D7E552E7CFFA
:1002A000D9FF1200D9CFE6FFE1CFD9FFFE0EDB5018
:1002B000000808E2010EE66E16EC02F0E552FE0EB2
:1002C000DB06F4D7E552E7CFD9FF1200DACFE4FF1F
:1002D000E2CFDAFFE652E552E5CFDAFF1100D8CFE0
:1002E000E4FFE0CFE4FFE46EDACFE4FFE2CFDAFF31
:1002F000E652E552E5CFDAFFE550E5CFE0FFE5CF86
:04030000D8FF100012
:0C030400060EF66E000EF76E000EF86E8E
:1003100000010900F550656F0900F550666F03E1B3
:10032000656701D03DD00900F550606F0900F550B8
:10033000616F0900F550626F09000900F550E96E20
:100340000900F550EA6E090009000900F550636FD5
:100350000900F550646F09000900F6CF67F0F7CF88
:1003600068F0F8CF69F060C0F6FF61C0F7FF62C0C7
:10037000F8FF0001635302E1645307E00900F55000
:10038000EE6E6307F8E26407F9D767C0F6FF68C04E
:10039000F7FF69C0F8FF00016507000E665BBFD775
:0203A000120049
:0E03A200FF0EE350036EEF0E01D0F30EE76E78
:1003B000E72ED8EF01F00C0E026EE76AE72EDEEFB3
:1003C00001F0022EDDEF01F0032ED6EF01F0120056
:1003D000FF0EE350036E480E01D04C0EE76EE72E81
:1003E000FED7E76AE72EFED7032EF7D700001200EC
:1003F000000EF36E00EE00F0080E01D81200EA6065
:1004000002D0EE6AFCD7F350E9601200EE6AFCD726
:1004100013EE00F023EE00F0F86A019C82EC01F08C
:0C04200029EC02F004EC00F0FBD7120005
:04042C00FF0EE3508C
:10043000E84E1200000000D000D000D0E82EFAD71D
:020440001200A8
:0E044200534B323841203A2900437974726FCF
:020450006E003C
:02045200120096
:020000040030CA
:0100000024DB
:010001000EF0
:010002003FBE
:010003001EDE
:010005008179
:010006008178
:010008000FE8
:01000900C036
:01000A000FE6
:01000B00E014
:01000C000FE4
:01000D0040B2
:00000001FF
