:100000000A128A115E2E00308A000408840A8207D0
:10001000003453344B3432343834413420343A349D
:100020002934003443347934743472346F346E3488
:0200300000349A
:100CBC0083010A128A113E2FF6007608803E0A1232
:100CCC008A11A7260A128A11080001300A128A1109
:100CDC00A7260A128A110730F7007D30F600F60BB2
:100CEC00752EF70B752E08001030F000F00B7C2ED3
:100CFC000000831203138611A630F000F00B842E33
:100D0C000000831203138615A630F000F00B8C2E16
:100D1C0000000800F5008312031306150830F300D9
:100D2C00F30B962E75080A128A111B270A128A11C8
:100D3C000730F4007D30F300F30BA22EF40BA22E3F
:100D4C000800F5008312031306110830F300F30BAF
:100D5C00AD2E75080A128A111B270A128A11073048
:100D6C00F4007D30F300F30BB92EF40BB92E080010
:100D7C0071087004031DC32EC42EC62EDB2EDB2E71
:100D8C000730F3007D30F200F20BCA2EF30BCA2EA3
:100D9C000130F0020030031CF103F1027108700401
:100DAC00031DD92EDA2EC62EDB2E0800F700F6080E
:100DBC00031DE12EE22EEA2E7708803E0A128A11DC
:100DCC00A7260A128A11F92E7608013A031DEF2E76
:100DDC00F02EF92E7708C03E0A128A11A7260A12A5
:100DEC008A11F92EF92E0800F7000D2F77088400D0
:100DFC000A128A1103200A128A110A128A119026E9
:100E0C000A128A110130F6007608F7070D2F7708C1
:100E1C0084000A128A1103200A128A110038031D59
:100E2C00182F192FFC2E1A2F0800F200F030720523
:100E3C00F1008312031306080F39710486000A129D
:100E4C008A117A260A128A117208F10004300310F2
:100E5C00F10DFF3E031D2D2F8312031306080F39CE
:100E6C00710486000A128A117A260A128A11080065
:100E7C0083120313850186018701831603138501F1
:100E8C000130860006309F008312031386100A126D
:100E9C008A1188270A128A11F60101300A128A1166
:100EAC00DC260A128A110A300A128A11FA260A1250
:100EBC008A1140300A128A1162260A128A110130F4
:100ECC000A128A11FA260A128A116C2F8312031342
:100EDC00023086063230F0000030F1000A128A111E
:100EEC00BE260A128A117B2F861083120313061C4E
:100EFC00802F812F7A2F6C2F6C2F6C2F842F0A123E
:100F0C008A110028C330F900CD30F800F80B8C2F73
:100F1C00F90B8C2F83120313861506110830F80079
:100F2C00F80B962F8312031306080F3930388600FE
:100F3C000A128A117A260A128A110D30F900FB3036
:100F4C00F800F80BA72FF90BA72FAC2F8312031364
:100F5C0006080F39303886000A128A117A260A12CE
:100F6C008A110D30F900FB30F800F80BBB2FF90B90
:100F7C00BB2FC02F8312031306080F39303886009D
:100F8C000A128A117A260A128A110D30F900FB30E6
:100F9C00F800F80BCF2FF90BCF2FD42F831203139C
:100FAC0006080F39203886000A128A117A260A128E
:100FBC008A110D30F900FB30F800F80BE32FF90B18
:100FCC00E32FE82F28300A128A11A7260A128A1159
:100FDC0006300A128A11A7260A128A110F300A1239
:100FEC008A11A7260A128A110A128A116B260A1272
:040FFC008A1108004E
:02400E00323F3F
:00000001FF
